{
  "contractName": "TodoContract",
  "abi": [
    {
      "anonymous": false,
      "inputs": [
        {
          "indexed": false,
          "internalType": "uint256",
          "name": "id",
          "type": "uint256"
        },
        {
          "indexed": false,
          "internalType": "string",
          "name": "content",
          "type": "string"
        },
        {
          "indexed": false,
          "internalType": "bool",
          "name": "completed",
          "type": "bool"
        }
      ],
      "name": "TodoCreated",
      "type": "event"
    },
    {
      "anonymous": false,
      "inputs": [
        {
          "indexed": false,
          "internalType": "uint256",
          "name": "id",
          "type": "uint256"
        }
      ],
      "name": "TodoDeleted",
      "type": "event"
    },
    {
      "anonymous": false,
      "inputs": [
        {
          "indexed": false,
          "internalType": "uint256",
          "name": "id",
          "type": "uint256"
        },
        {
          "indexed": false,
          "internalType": "bool",
          "name": "completed",
          "type": "bool"
        }
      ],
      "name": "TodoToggled",
      "type": "event"
    },
    {
      "inputs": [
        {
          "internalType": "address",
          "name": "",
          "type": "address"
        }
      ],
      "name": "todoCount",
      "outputs": [
        {
          "internalType": "uint256",
          "name": "",
          "type": "uint256"
        }
      ],
      "stateMutability": "view",
      "type": "function",
      "constant": true
    },
    {
      "inputs": [
        {
          "internalType": "address",
          "name": "",
          "type": "address"
        },
        {
          "internalType": "uint256",
          "name": "",
          "type": "uint256"
        }
      ],
      "name": "todos",
      "outputs": [
        {
          "internalType": "uint256",
          "name": "id",
          "type": "uint256"
        },
        {
          "internalType": "string",
          "name": "content",
          "type": "string"
        },
        {
          "internalType": "bool",
          "name": "completed",
          "type": "bool"
        },
        {
          "internalType": "uint256",
          "name": "createdAt",
          "type": "uint256"
        }
      ],
      "stateMutability": "view",
      "type": "function",
      "constant": true
    },
    {
      "inputs": [
        {
          "internalType": "string",
          "name": "_content",
          "type": "string"
        }
      ],
      "name": "createTodo",
      "outputs": [],
      "stateMutability": "nonpayable",
      "type": "function"
    },
    {
      "inputs": [
        {
          "internalType": "uint256",
          "name": "_id",
          "type": "uint256"
        }
      ],
      "name": "toggleTodo",
      "outputs": [],
      "stateMutability": "nonpayable",
      "type": "function"
    },
    {
      "inputs": [
        {
          "internalType": "uint256",
          "name": "_id",
          "type": "uint256"
        }
      ],
      "name": "deleteTodo",
      "outputs": [],
      "stateMutability": "nonpayable",
      "type": "function"
    },
    {
      "inputs": [],
      "name": "getTodos",
      "outputs": [
        {
          "components": [
            {
              "internalType": "uint256",
              "name": "id",
              "type": "uint256"
            },
            {
              "internalType": "string",
              "name": "content",
              "type": "string"
            },
            {
              "internalType": "bool",
              "name": "completed",
              "type": "bool"
            },
            {
              "internalType": "uint256",
              "name": "createdAt",
              "type": "uint256"
            }
          ],
          "internalType": "struct TodoContract.Todo[]",
          "name": "",
          "type": "tuple[]"
        }
      ],
      "stateMutability": "view",
      "type": "function",
      "constant": true
    }
  ],
  "bytecode": "0x608060405234801561001057600080fd5b50610a7d806100206000396000f3fe608060405234801561001057600080fd5b50600436106100625760003560e01c80630d58c96a14610067578063428c1889146100905780636e3c6738146100b3578063c33926cb146100c8578063dc00282c146100dd578063e34f1221146100f0575b600080fd5b61007a61007536600461075b565b610103565b604051610087919061095f565b60405180910390f35b6100a361009e36600461077c565b610115565b60405161008794939291906109a3565b6100c66100c1366004610846565b6101ee565b005b6100d06102c4565b60405161008791906108a9565b6100c66100eb366004610846565b610498565b6100c66100fe3660046107a5565b61055d565b60016020526000908152604090205481565b6000602052816000526040600020818154811061013157600080fd5b90600052602060002090600402016000915091505080600001549080600101805461015b906109cf565b80601f0160208091040260200160405190810160405280929190818152602001828054610187906109cf565b80156101d45780601f106101a9576101008083540402835291602001916101d4565b820191906000526020600020905b8154815290600101906020018083116101b757829003601f168201915b505050506002830154600390930154919260ff1691905084565b3360009081526001602052604090205481106102255760405162461bcd60e51b815260040161021c90610933565b60405180910390fd5b33600090815260208190526040902080548290811061025457634e487b7160e01b600052603260045260246000fd5b60009182526020822060049091020181815590610274600183018261063d565b5060028101805460ff1916905560006003909101556040517f1072e4eeea43a52d09f5b6dfc870a079948f706133840ce9239aebc57fabb65f906102b990839061095f565b60405180910390a150565b336000908152600160205260408120546060919067ffffffffffffffff8111156102fe57634e487b7160e01b600052604160045260246000fd5b60405190808252806020026020018201604052801561033757816020015b61032461067c565b81526020019060019003908161031c5790505b50905060005b336000908152600160205260409020548110156104925733600090815260208190526040902080548290811061038357634e487b7160e01b600052603260045260246000fd5b9060005260206000209060040201604051806080016040529081600082015481526020016001820180546103b6906109cf565b80601f01602080910402602001604051908101604052809291908181526020018280546103e2906109cf565b801561042f5780601f106104045761010080835404028352916020019161042f565b820191906000526020600020905b81548152906001019060200180831161041257829003601f168201915b5050509183525050600282015460ff1615156020820152600390910154604090910152825183908390811061047457634e487b7160e01b600052603260045260246000fd5b6020026020010181905250808061048a90610a0a565b91505061033d565b50905090565b3360009081526001602052604090205481106104c65760405162461bcd60e51b815260040161021c90610933565b3360009081526020819052604081208054839081106104f557634e487b7160e01b600052603260045260246000fd5b600091825260209091206002600490920201908101805460ff19811660ff9182161517918290556040519293507fb50a16255ec610e07f1e0b3a7b9aa1d91e047f81010699695a0cbea58f5d2ba0926105519286921690610968565b60405180910390a15050565b336000908152600160208181526040808420548483528185208251608081018452828152808501888152938101879052426060820152815480870183559187529584902086516004909202019081559151805191959492936105c4938501929101906106a6565b5060408281015160028301805460ff1916911515919091179055606090920151600390910155336000908152600160205290812080549161060483610a0a565b91905055507f216b7b554cc6be0fbaed756f9b62e83e41a91839dc1556b845c14d0f670366468183600060405161055193929190610978565b508054610649906109cf565b6000825580601f1061065b5750610679565b601f016020900490600052602060002090810190610679919061072a565b50565b60405180608001604052806000815260200160608152602001600015158152602001600081525090565b8280546106b2906109cf565b90600052602060002090601f0160209004810192826106d4576000855561071a565b82601f106106ed57805160ff191683800117855561071a565b8280016001018555821561071a579182015b8281111561071a5782518255916020019190600101906106ff565b5061072692915061072a565b5090565b5b80821115610726576000815560010161072b565b80356001600160a01b038116811461075657600080fd5b919050565b60006020828403121561076c578081fd5b6107758261073f565b9392505050565b6000806040838503121561078e578081fd5b6107978361073f565b946020939093013593505050565b600060208083850312156107b7578182fd5b823567ffffffffffffffff808211156107ce578384fd5b818501915085601f8301126107e1578384fd5b8135818111156107f3576107f3610a31565b604051601f8201601f191681018501838111828210171561081657610816610a31565b604052818152838201850188101561082c578586fd5b818585018683013790810190930193909352509392505050565b600060208284031215610857578081fd5b5035919050565b60008151808452815b8181101561088357602081850181015186830182015201610867565b818111156108945782602083870101525b50601f01601f19169290920160200192915050565b60208082528251828201819052600091906040908185019080840286018301878501865b8381101561092557603f19898403018552815160808151855288820151818a8701526108fb8287018261085e565b838a01511515878b01526060938401519390960192909252505093860193908601906001016108cd565b509098975050505050505050565b602080825260129082015271151bd91bc8191bd95cdb89dd08195e1a5cdd60721b604082015260600190565b90815260200190565b9182521515602082015260400190565b600084825260606020830152610991606083018561085e565b90508215156040830152949350505050565b6000858252608060208301526109bc608083018661085e565b9315156040830152506060015292915050565b6002810460018216806109e357607f821691505b60208210811415610a0457634e487b7160e01b600052602260045260246000fd5b50919050565b6000600019821415610a2a57634e487b7160e01b81526011600452602481fd5b5060010190565b634e487b7160e01b600052604160045260246000fdfea2646970667358221220a903e8f3fb948962ac267be9d7ffcb14e89eec069d402a78927786f1004554ab64736f6c63430008000033",
  "immutableReferences": {},
  "source": "// SPDX-License-Identifier: MIT\r\npragma solidity ^0.8.0;\r\n\r\ncontract TodoContract {\r\n    struct Todo {\r\n        uint id;\r\n        string content;\r\n        bool completed;\r\n        uint createdAt;\r\n    }\r\n\r\n    mapping(address => Todo[]) public todos;\r\n    mapping(address => uint) public todoCount;\r\n\r\n    event TodoCreated(uint id, string content, bool completed);\r\n    event TodoToggled(uint id, bool completed);\r\n    event TodoDeleted(uint id);\r\n\r\n    function createTodo(string memory _content) public {\r\n        uint count = todoCount[msg.sender];\r\n        todos[msg.sender].push(Todo(count, _content, false, block.timestamp));\r\n        todoCount[msg.sender]++;\r\n        emit TodoCreated(count, _content, false);\r\n    }\r\n\r\n    function toggleTodo(uint _id) public {\r\n        require(_id < todoCount[msg.sender], \"Todo doesn't exist\");\r\n        Todo storage todo = todos[msg.sender][_id];\r\n        todo.completed = !todo.completed;\r\n        emit TodoToggled(_id, todo.completed);\r\n    }\r\n\r\n    function deleteTodo(uint _id) public {\r\n        require(_id < todoCount[msg.sender], \"Todo doesn't exist\");\r\n        delete todos[msg.sender][_id];\r\n        emit TodoDeleted(_id);\r\n    }\r\n\r\n    function getTodos() public view returns (Todo[] memory) {\r\n        Todo[] memory userTodos = new Todo[](todoCount[msg.sender]);\r\n        for (uint i = 0; i < todoCount[msg.sender]; i++) {\r\n            userTodos[i] = todos[msg.sender][i];\r\n        }\r\n        return userTodos;\r\n    }\r\n}",
  "sourcePath": "D:\\Documents\\Swanandi Projects\\todo_blockchain.5\\ethereum-todo-app\\contracts\\TodoContract.sol",
  "compiler": {
    "name": "solc",
    "version": "0.8.0+commit.c7dfd78e.Emscripten.clang"
  },
  "schemaVersion": "3.4.16",
  "updatedAt": "2025-08-14T06:16:13.178Z",
  "networkType": "ethereum",
  "devdoc": {
    "kind": "dev",
    "methods": {},
    "version": 1
  },
  "userdoc": {
    "kind": "user",
    "methods": {},
    "version": 1
  }
}